{
  "contractName": "Entradas",
  "abi": [
    {
      "inputs": [
        {
          "internalType": "string",
          "name": "_evento",
          "type": "string"
        },
        {
          "internalType": "uint256",
          "name": "_numero_entradas_normal",
          "type": "uint256"
        },
        {
          "internalType": "uint256",
          "name": "_numero_entradas_super",
          "type": "uint256"
        },
        {
          "internalType": "uint256",
          "name": "_numero_entradas_vip",
          "type": "uint256"
        },
        {
          "internalType": "uint256",
          "name": "_numero_entradas_owner",
          "type": "uint256"
        },
        {
          "internalType": "uint256",
          "name": "_fecha",
          "type": "uint256"
        }
      ],
      "stateMutability": "nonpayable",
      "type": "constructor"
    },
    {
      "inputs": [
        {
          "internalType": "uint256",
          "name": "",
          "type": "uint256"
        }
      ],
      "name": "TotalEntradas",
      "outputs": [
        {
          "internalType": "address",
          "name": "participante",
          "type": "address"
        },
        {
          "internalType": "uint256",
          "name": "n_ticket",
          "type": "uint256"
        },
        {
          "internalType": "uint256",
          "name": "butaca",
          "type": "uint256"
        },
        {
          "internalType": "uint256",
          "name": "fecha",
          "type": "uint256"
        },
        {
          "internalType": "bool",
          "name": "estado",
          "type": "bool"
        },
        {
          "internalType": "enum Entradas.TipoEntrada",
          "name": "tipo",
          "type": "uint8"
        }
      ],
      "stateMutability": "view",
      "type": "function",
      "constant": true
    },
    {
      "inputs": [],
      "name": "creador",
      "outputs": [
        {
          "internalType": "address",
          "name": "",
          "type": "address"
        }
      ],
      "stateMutability": "view",
      "type": "function",
      "constant": true
    },
    {
      "inputs": [],
      "name": "evento",
      "outputs": [
        {
          "internalType": "string",
          "name": "",
          "type": "string"
        }
      ],
      "stateMutability": "view",
      "type": "function",
      "constant": true
    },
    {
      "inputs": [],
      "name": "numero_entradas_total",
      "outputs": [
        {
          "internalType": "uint256",
          "name": "",
          "type": "uint256"
        }
      ],
      "stateMutability": "view",
      "type": "function",
      "constant": true
    },
    {
      "stateMutability": "payable",
      "type": "receive",
      "payable": true
    },
    {
      "inputs": [],
      "name": "numeroTotalEntradas",
      "outputs": [
        {
          "internalType": "uint256",
          "name": "",
          "type": "uint256"
        }
      ],
      "stateMutability": "view",
      "type": "function",
      "constant": true
    },
    {
      "inputs": [
        {
          "internalType": "uint256",
          "name": "_indice",
          "type": "uint256"
        },
        {
          "internalType": "address",
          "name": "_nuevoParticipante",
          "type": "address"
        }
      ],
      "name": "comprarEntrada",
      "outputs": [],
      "stateMutability": "nonpayable",
      "type": "function"
    },
    {
      "inputs": [
        {
          "internalType": "uint256",
          "name": "_indice",
          "type": "uint256"
        },
        {
          "internalType": "address",
          "name": "_nuevoParticipante",
          "type": "address"
        }
      ],
      "name": "modificarEntrada",
      "outputs": [],
      "stateMutability": "nonpayable",
      "type": "function"
    },
    {
      "inputs": [],
      "name": "eliminarContratoDespuesFecha",
      "outputs": [],
      "stateMutability": "nonpayable",
      "type": "function"
    }
  ],
  "bytecode": "0x60806040523480156200001157600080fd5b5060405162001fed38038062001fed833981810160405281019062000037919062000a0c565b60008651036200007e576040517f08c379a0000000000000000000000000000000000000000000000000000000008152600401620000759062000b4e565b60405180910390fd5b60008284868862000090919062000b9f565b6200009c919062000b9f565b620000a8919062000b9f565b11620000eb576040517f08c379a0000000000000000000000000000000000000000000000000000000008152600401620000e29062000c50565b60405180910390fd5b33600160006101000a81548173ffffffffffffffffffffffffffffffffffffffff021916908373ffffffffffffffffffffffffffffffffffffffff16021790555085600090816200013d919062000eb3565b50818385876200014e919062000b9f565b6200015a919062000b9f565b62000166919062000b9f565b6002819055508460038190555083600481905550826005819055508160068190555080600881905550620001a081620001ac60201b60201c565b50505050505062001016565b60005b60035481101562000342576000808390506000600184620001d1919062000b9f565b90506000806040518060c001604052808673ffffffffffffffffffffffffffffffffffffffff1681526020016001886200020c919062000b9f565b81526020018481526020018581526020016000151581526020018360038111156200023c576200023b62000f9a565b5b8152509050600781908060018154018082558091505060019003906000526020600020906005020160009091909190915060008201518160000160006101000a81548173ffffffffffffffffffffffffffffffffffffffff021916908373ffffffffffffffffffffffffffffffffffffffff16021790555060208201518160010155604082015181600201556060820151816003015560808201518160040160006101000a81548160ff02191690831515021790555060a08201518160040160016101000a81548160ff0219169083600381111562000320576200031f62000f9a565b5b0217905550505050505050508080620003399062000fc9565b915050620001af565b5b60045460035462000355919062000b9f565b811015620004ea57600080839050600060018462000374919062000b9f565b905060006001905060006040518060c001604052808673ffffffffffffffffffffffffffffffffffffffff168152602001600188620003b4919062000b9f565b8152602001848152602001858152602001600015158152602001836003811115620003e457620003e362000f9a565b5b8152509050600781908060018154018082558091505060019003906000526020600020906005020160009091909190915060008201518160000160006101000a81548173ffffffffffffffffffffffffffffffffffffffff021916908373ffffffffffffffffffffffffffffffffffffffff16021790555060208201518160010155604082015181600201556060820151816003015560808201518160040160006101000a81548160ff02191690831515021790555060a08201518160040160016101000a81548160ff02191690836003811115620004c857620004c762000f9a565b5b0217905550505050505050508080620004e19062000fc9565b91505062000343565b5b60055460045460035462000500919062000b9f565b6200050c919062000b9f565b811015620006a15760008083905060006001846200052b919062000b9f565b905060006002905060006040518060c001604052808673ffffffffffffffffffffffffffffffffffffffff1681526020016001886200056b919062000b9f565b81526020018481526020018581526020016000151581526020018360038111156200059b576200059a62000f9a565b5b8152509050600781908060018154018082558091505060019003906000526020600020906005020160009091909190915060008201518160000160006101000a81548173ffffffffffffffffffffffffffffffffffffffff021916908373ffffffffffffffffffffffffffffffffffffffff16021790555060208201518160010155604082015181600201556060820151816003015560808201518160040160006101000a81548160ff02191690831515021790555060a08201518160040160016101000a81548160ff021916908360038111156200067f576200067e62000f9a565b5b0217905550505050505050508080620006989062000fc9565b915050620004eb565b5b6002548110156200083a576000808390506000600184620006c4919062000b9f565b905060006003905060006040518060c001604052808673ffffffffffffffffffffffffffffffffffffffff16815260200160018862000704919062000b9f565b815260200184815260200185815260200160001515815260200183600381111562000734576200073362000f9a565b5b8152509050600781908060018154018082558091505060019003906000526020600020906005020160009091909190915060008201518160000160006101000a81548173ffffffffffffffffffffffffffffffffffffffff021916908373ffffffffffffffffffffffffffffffffffffffff16021790555060208201518160010155604082015181600201556060820151816003015560808201518160040160006101000a81548160ff02191690831515021790555060a08201518160040160016101000a81548160ff0219169083600381111562000818576200081762000f9a565b5b0217905550505050505050508080620008319062000fc9565b915050620006a2565b5050565b6000604051905090565b600080fd5b600080fd5b600080fd5b600080fd5b6000601f19601f8301169050919050565b7f4e487b7100000000000000000000000000000000000000000000000000000000600052604160045260246000fd5b620008a7826200085c565b810181811067ffffffffffffffff82111715620008c957620008c86200086d565b5b80604052505050565b6000620008de6200083e565b9050620008ec82826200089c565b919050565b600067ffffffffffffffff8211156200090f576200090e6200086d565b5b6200091a826200085c565b9050602081019050919050565b60005b83811015620009475780820151818401526020810190506200092a565b60008484015250505050565b60006200096a6200096484620008f1565b620008d2565b90508281526020810184848401111562000989576200098862000857565b5b6200099684828562000927565b509392505050565b600082601f830112620009b657620009b562000852565b5b8151620009c884826020860162000953565b91505092915050565b6000819050919050565b620009e681620009d1565b8114620009f257600080fd5b50565b60008151905062000a0681620009db565b92915050565b60008060008060008060c0878903121562000a2c5762000a2b62000848565b5b600087015167ffffffffffffffff81111562000a4d5762000a4c6200084d565b5b62000a5b89828a016200099e565b965050602062000a6e89828a01620009f5565b955050604062000a8189828a01620009f5565b945050606062000a9489828a01620009f5565b935050608062000aa789828a01620009f5565b92505060a062000aba89828a01620009f5565b9150509295509295509295565b600082825260208201905092915050565b7f456c206e6f6d6272652064656c206576656e746f206e6f20707565646520657360008201527f74617220766163696f0000000000000000000000000000000000000000000000602082015250565b600062000b3660298362000ac7565b915062000b438262000ad8565b604082019050919050565b6000602082019050818103600083015262000b698162000b27565b9050919050565b7f4e487b7100000000000000000000000000000000000000000000000000000000600052601160045260246000fd5b600062000bac82620009d1565b915062000bb983620009d1565b925082820190508082111562000bd45762000bd362000b70565b5b92915050565b7f456c206e756d65726f20746f74616c20646520656e747261646173206465626560008201527f20736572206d61796f7220717565203000000000000000000000000000000000602082015250565b600062000c3860308362000ac7565b915062000c458262000bda565b604082019050919050565b6000602082019050818103600083015262000c6b8162000c29565b9050919050565b600081519050919050565b7f4e487b7100000000000000000000000000000000000000000000000000000000600052602260045260246000fd5b6000600282049050600182168062000cc557607f821691505b60208210810362000cdb5762000cda62000c7d565b5b50919050565b60008190508160005260206000209050919050565b60006020601f8301049050919050565b600082821b905092915050565b60006008830262000d457fffffffffffffffffffffffffffffffffffffffffffffffffffffffffffffffff8262000d06565b62000d51868362000d06565b95508019841693508086168417925050509392505050565b6000819050919050565b600062000d9462000d8e62000d8884620009d1565b62000d69565b620009d1565b9050919050565b6000819050919050565b62000db08362000d73565b62000dc862000dbf8262000d9b565b84845462000d13565b825550505050565b600090565b62000ddf62000dd0565b62000dec81848462000da5565b505050565b5b8181101562000e145762000e0860008262000dd5565b60018101905062000df2565b5050565b601f82111562000e635762000e2d8162000ce1565b62000e388462000cf6565b8101602085101562000e48578190505b62000e6062000e578562000cf6565b83018262000df1565b50505b505050565b600082821c905092915050565b600062000e886000198460080262000e68565b1980831691505092915050565b600062000ea3838362000e75565b9150826002028217905092915050565b62000ebe8262000c72565b67ffffffffffffffff81111562000eda5762000ed96200086d565b5b62000ee6825462000cac565b62000ef382828562000e18565b600060209050601f83116001811462000f2b576000841562000f16578287015190505b62000f22858262000e95565b86555062000f92565b601f19841662000f3b8662000ce1565b60005b8281101562000f655784890151825560018201915060208501945060208101905062000f3e565b8683101562000f85578489015162000f81601f89168262000e75565b8355505b6001600288020188555050505b505050505050565b7f4e487b7100000000000000000000000000000000000000000000000000000000600052602160045260246000fd5b600062000fd682620009d1565b91507fffffffffffffffffffffffffffffffffffffffffffffffffffffffffffffffff82036200100b576200100a62000b70565b5b600182019050919050565b610fc780620010266000396000f3fe60806040526004361061007f5760003560e01c806392ebdcd21161004e57806392ebdcd21461015a578063a3274c9b14610185578063d59c885d146101ae578063f916106a146101f0576100bf565b80632919d18e146100c45780632cf7c761146100ef57806389f045521461011a5780638b206fab14610131576100bf565b366100bf576040517f08c379a00000000000000000000000000000000000000000000000000000000081526004016100b690610871565b60405180910390fd5b600080fd5b3480156100d057600080fd5b506100d961021b565b6040516100e691906108aa565b60405180910390f35b3480156100fb57600080fd5b50610104610221565b6040516101119190610944565b60405180910390f35b34801561012657600080fd5b5061012f6102af565b005b34801561013d57600080fd5b50610158600480360381019061015391906109f5565b6103cc565b005b34801561016657600080fd5b5061016f610563565b60405161017c9190610a44565b60405180910390f35b34801561019157600080fd5b506101ac60048036038101906101a791906109f5565b610589565b005b3480156101ba57600080fd5b506101d560048036038101906101d09190610a5f565b61075e565b6040516101e796959493929190610b1e565b60405180910390f35b3480156101fc57600080fd5b506102056107e4565b60405161021291906108aa565b60405180910390f35b60025481565b6000805461022e90610bae565b80601f016020809104026020016040519081016040528092919081815260200182805461025a90610bae565b80156102a75780601f1061027c576101008083540402835291602001916102a7565b820191906000526020600020905b81548152906001019060200180831161028a57829003601f168201915b505050505081565b620151806008546102c09190610c0e565b4211610301576040517f08c379a00000000000000000000000000000000000000000000000000000000081526004016102f890610cb4565b60405180910390fd5b600160009054906101000a900473ffffffffffffffffffffffffffffffffffffffff1673ffffffffffffffffffffffffffffffffffffffff163373ffffffffffffffffffffffffffffffffffffffff1614610391576040517f08c379a000000000000000000000000000000000000000000000000000000000815260040161038890610d46565b60405180910390fd5b600160009054906101000a900473ffffffffffffffffffffffffffffffffffffffff1673ffffffffffffffffffffffffffffffffffffffff16ff5b6007805490508210610413576040517f08c379a000000000000000000000000000000000000000000000000000000000815260040161040a90610db2565b60405180910390fd5b600073ffffffffffffffffffffffffffffffffffffffff168173ffffffffffffffffffffffffffffffffffffffff1603610482576040517f08c379a000000000000000000000000000000000000000000000000000000000815260040161047990610e44565b60405180910390fd5b600015156007838154811061049a57610499610e64565b5b906000526020600020906005020160040160009054906101000a900460ff161515036104fb576040517f08c379a00000000000000000000000000000000000000000000000000000000081526004016104f290610edf565b60405180910390fd5b80600783815481106105105761050f610e64565b5b906000526020600020906005020160000160006101000a81548173ffffffffffffffffffffffffffffffffffffffff021916908373ffffffffffffffffffffffffffffffffffffffff1602179055505050565b600160009054906101000a900473ffffffffffffffffffffffffffffffffffffffff1681565b60078054905082106105d0576040517f08c379a00000000000000000000000000000000000000000000000000000000081526004016105c790610db2565b60405180910390fd5b600073ffffffffffffffffffffffffffffffffffffffff168173ffffffffffffffffffffffffffffffffffffffff160361063f576040517f08c379a000000000000000000000000000000000000000000000000000000000815260040161063690610e44565b60405180910390fd5b600015156007838154811061065757610656610e64565b5b906000526020600020906005020160040160009054906101000a900460ff161515146106b8576040517f08c379a00000000000000000000000000000000000000000000000000000000081526004016106af90610f71565b60405180910390fd5b80600783815481106106cd576106cc610e64565b5b906000526020600020906005020160000160006101000a81548173ffffffffffffffffffffffffffffffffffffffff021916908373ffffffffffffffffffffffffffffffffffffffff16021790555060016007838154811061073257610731610e64565b5b906000526020600020906005020160040160006101000a81548160ff0219169083151502179055505050565b6007818154811061076e57600080fd5b90600052602060002090600502016000915090508060000160009054906101000a900473ffffffffffffffffffffffffffffffffffffffff16908060010154908060020154908060030154908060040160009054906101000a900460ff16908060040160019054906101000a900460ff16905086565b6000600254905090565b600082825260208201905092915050565b7f4e6f207365207065726d697465206c6120726563657063696f6e20646520646960008201527f6e65726f2e000000000000000000000000000000000000000000000000000000602082015250565b600061085b6025836107ee565b9150610866826107ff565b604082019050919050565b6000602082019050818103600083015261088a8161084e565b9050919050565b6000819050919050565b6108a481610891565b82525050565b60006020820190506108bf600083018461089b565b92915050565b600081519050919050565b60005b838110156108ee5780820151818401526020810190506108d3565b60008484015250505050565b6000601f19601f8301169050919050565b6000610916826108c5565b61092081856107ee565b93506109308185602086016108d0565b610939816108fa565b840191505092915050565b6000602082019050818103600083015261095e818461090b565b905092915050565b600080fd5b61097481610891565b811461097f57600080fd5b50565b6000813590506109918161096b565b92915050565b600073ffffffffffffffffffffffffffffffffffffffff82169050919050565b60006109c282610997565b9050919050565b6109d2816109b7565b81146109dd57600080fd5b50565b6000813590506109ef816109c9565b92915050565b60008060408385031215610a0c57610a0b610966565b5b6000610a1a85828601610982565b9250506020610a2b858286016109e0565b9150509250929050565b610a3e816109b7565b82525050565b6000602082019050610a596000830184610a35565b92915050565b600060208284031215610a7557610a74610966565b5b6000610a8384828501610982565b91505092915050565b60008115159050919050565b610aa181610a8c565b82525050565b7f4e487b7100000000000000000000000000000000000000000000000000000000600052602160045260246000fd5b60048110610ae757610ae6610aa7565b5b50565b6000819050610af882610ad6565b919050565b6000610b0882610aea565b9050919050565b610b1881610afd565b82525050565b600060c082019050610b336000830189610a35565b610b40602083018861089b565b610b4d604083018761089b565b610b5a606083018661089b565b610b676080830185610a98565b610b7460a0830184610b0f565b979650505050505050565b7f4e487b7100000000000000000000000000000000000000000000000000000000600052602260045260246000fd5b60006002820490506001821680610bc657607f821691505b602082108103610bd957610bd8610b7f565b5b50919050565b7f4e487b7100000000000000000000000000000000000000000000000000000000600052601160045260246000fd5b6000610c1982610891565b9150610c2483610891565b9250828201905080821115610c3c57610c3b610bdf565b5b92915050565b7f41756e206e6f2068612070617361646f20616c206d656e6f7320756e2064696160008201527f20646573646520656c206576656e746f00000000000000000000000000000000602082015250565b6000610c9e6030836107ee565b9150610ca982610c42565b604082019050919050565b60006020820190508181036000830152610ccd81610c91565b9050919050565b7f536f6c6f20656c206f776e6572207075656465206c6c616d617220612065737460008201527f612066756e63696f6e2e00000000000000000000000000000000000000000000602082015250565b6000610d30602a836107ee565b9150610d3b82610cd4565b604082019050919050565b60006020820190508181036000830152610d5f81610d23565b9050919050565b7f456e7472616461206e6f20656e636f6e74726164612e00000000000000000000600082015250565b6000610d9c6016836107ee565b9150610da782610d66565b602082019050919050565b60006020820190508181036000830152610dcb81610d8f565b9050919050565b7f4c6120646972656363696f6e2064656c207061727469636970616e7465206e6f60008201527f20707565646520736572206365726f2e00000000000000000000000000000000602082015250565b6000610e2e6030836107ee565b9150610e3982610dd2565b604082019050919050565b60006020820190508181036000830152610e5d81610e21565b9050919050565b7f4e487b7100000000000000000000000000000000000000000000000000000000600052603260045260246000fd5b7f41756e206e6f206861207369646f20636f6d7072616461000000000000000000600082015250565b6000610ec96017836107ee565b9150610ed482610e93565b602082019050919050565b60006020820190508181036000830152610ef881610ebc565b9050919050565b7f4c6120656e7472616461207961207469656e6520756e20636f6d707261646f7260008201527f20617369676e61646f2e00000000000000000000000000000000000000000000602082015250565b6000610f5b602a836107ee565b9150610f6682610eff565b604082019050919050565b60006020820190508181036000830152610f8a81610f4e565b905091905056fea2646970667358221220615cac235a4d20c7e16823108705b17fbda2ee0afc29f7fc5cad6812cef5a20164736f6c63430008110033",
  "immutableReferences": {},
  "source": "// SPDX-License-Identifier: UNLICENSED\r\npragma solidity 0.8.17;\r\n\r\n/**\r\n *  El contrato Entardas que representa un conjunto de entradas de un evento.\r\n */\r\n \r\n contract Entradas {\r\n\r\n    /// Nombre del evento\r\n    string public evento;\r\n\r\n    /**\r\n     * address del creador que ha desplegado el contrato.\r\n     * El contrato lo despliega el creador.\r\n     */\r\n    address public  creador;\r\n\r\n      \r\n    enum TipoEntrada {Normal, Super, VIP, Owner}\r\n    /// Estructura de la entrada.\"aadirEntrada\" a\r\n\r\n    struct Entrada {\r\n\r\n        address participante;\r\n        uint    n_ticket;\r\n        uint butaca;\r\n        uint fecha;\r\n        //False: Aun no tiene asignado comprador\r\n        //True: Ya tiene asignado comprador\r\n        bool estado;\r\n        TipoEntrada tipo;\r\n    }\r\n    //Nmeros de tipos de entrada\r\n    uint public numero_entradas_total;\r\n    uint numero_entradas_normal;\r\n    uint numero_entradas_super;\r\n    uint numero_entradas_vip;\r\n    uint numero_entradas_owner;\r\n  \r\n    Entrada[] public TotalEntradas;\r\n\r\n    //fecha del evento en timestamp\r\n    uint fecha_evento;\r\n\r\n    /*\r\n     * Constructor.\r\n     */\r\n    constructor(string memory _evento, uint _numero_entradas_normal, uint _numero_entradas_super, uint _numero_entradas_vip, uint _numero_entradas_owner, uint _fecha) {\r\n        require(bytes(_evento).length != 0, \"El nombre del evento no puede estar vacio\");\r\n        require(_numero_entradas_normal + _numero_entradas_super + _numero_entradas_vip + _numero_entradas_owner > 0, \"El numero total de entradas debe ser mayor que 0\");\r\n      \r\n        creador = msg.sender;\r\n        evento = _evento;\r\n        numero_entradas_total = _numero_entradas_normal + _numero_entradas_super + _numero_entradas_vip + _numero_entradas_owner;\r\n        numero_entradas_normal = _numero_entradas_normal;\r\n        numero_entradas_super = _numero_entradas_super;\r\n        numero_entradas_vip = _numero_entradas_vip;\r\n        numero_entradas_owner = _numero_entradas_owner;\r\n        fecha_evento = _fecha;\r\n        crearEntradasPorDefecto(_fecha);\r\n    }\r\n    \r\n \r\n    /**\r\n     * Crea las entradas por defecto en el constructor.\r\n     INTERNAL -> Solo puede ser llamada desde el interior de una funcin\r\n     */\r\n    function crearEntradasPorDefecto(uint _fecha) internal {\r\n        uint i;\r\n        for (i = 0; i < numero_entradas_normal; i++) {\r\n            address participante = address(0); // ninguna persona asignada an\r\n            uint fecha = _fecha; // la fecha actual del bloque\r\n            uint butaca = i + 1; // nmero de butaca\r\n            TipoEntrada tipoEntrada = TipoEntrada.Normal; // entrada normal\r\n            Entrada memory nuevaEntrada = Entrada(participante, i + 1, butaca, fecha, false, tipoEntrada);\r\n            TotalEntradas.push(nuevaEntrada);\r\n        }\r\n        for (; i < numero_entradas_normal + numero_entradas_super; i++) {\r\n            address participante = address(0); // ninguna persona asignada an\r\n            uint fecha = _fecha; // la fecha actual del bloque\r\n            uint butaca = i + 1; // nmero de butaca\r\n            TipoEntrada tipoEntrada = TipoEntrada.Super; // entrada super\r\n            Entrada memory nuevaEntrada = Entrada(participante, i + 1, butaca, fecha, false, tipoEntrada);\r\n            TotalEntradas.push(nuevaEntrada);\r\n        }\r\n        for (; i < numero_entradas_normal + numero_entradas_super + numero_entradas_vip; i++) {\r\n            address participante = address(0); // ninguna persona asignada an\r\n            uint fecha = _fecha; // la fecha actual del bloque\r\n            uint butaca = i + 1; // nmero de butaca\r\n            TipoEntrada tipoEntrada = TipoEntrada.VIP; // entrada super\r\n            Entrada memory nuevaEntrada = Entrada(participante, i + 1, butaca, fecha, false, tipoEntrada);\r\n            TotalEntradas.push(nuevaEntrada);\r\n        }\r\n\r\n        for (; i < numero_entradas_total; i++) {\r\n            address participante = address(0); // ninguna persona asignada an\r\n            uint fecha = _fecha; // la fecha actual del bloque\r\n            uint butaca = i + 1; // nmero de butaca\r\n            TipoEntrada tipoEntrada = TipoEntrada.Owner; // entrada super\r\n            Entrada memory nuevaEntrada = Entrada(participante, i + 1, butaca, fecha, false, tipoEntrada);\r\n            TotalEntradas.push(nuevaEntrada);\r\n        }\r\n\r\n}\r\n\r\nfunction numeroTotalEntradas() public view returns (uint) {\r\n    return numero_entradas_total;\r\n}\r\n\r\n\r\n //Funcin usada para crear un nmero de entradas\r\n\r\nfunction comprarEntrada(uint _indice, address _nuevoParticipante) public {\r\n    require(_indice < TotalEntradas.length, \"Entrada no encontrada.\");\r\n    require(_nuevoParticipante != address(0), \"La direccion del participante no puede ser cero.\");\r\n    require(TotalEntradas[_indice].estado == false, \"La entrada ya tiene un comprador asignado.\");\r\n\r\n    TotalEntradas[_indice].participante = _nuevoParticipante;\r\n    TotalEntradas[_indice].estado = true;\r\n}\r\n\r\n//Funcion usada para modificar el participante de una entrada (Reventa)\r\n    function modificarEntrada(uint _indice, address _nuevoParticipante) public {\r\n        require(_indice < TotalEntradas.length, \"Entrada no encontrada.\");\r\n        require(_nuevoParticipante != address(0), \"La direccion del participante no puede ser cero.\");\r\n        require(TotalEntradas[_indice].estado != false, \"Aun no ha sido comprada\");\r\n        TotalEntradas[_indice].participante = _nuevoParticipante;\r\n    }\r\n\r\n    \r\n    //Eliminar el contrato\r\n    function eliminarContratoDespuesFecha() public onlyAfter() {\r\n    require(msg.sender == creador, \"Solo el owner puede llamar a esta funcion.\");\r\n    selfdestruct(payable(creador));\r\n\r\n}\r\n\r\n\r\n    //Comprobar que ha finalizado el evento (Damos un da de margen\r\n    modifier onlyAfter() {\r\n        //block.timestamp -> Da la fecha actual en timestamp\r\n    require(block.timestamp > (fecha_evento + 86400), \"Aun no ha pasado al menos un dia desde el evento\");\r\n    _;\r\n}\r\n\r\n\r\n    /**\r\n     * No se permite la recepcion de dinero.\r\n     */\r\n    receive() external payable {\r\n        revert(\"No se permite la recepcion de dinero.\");\r\n    }\r\n }",
  "sourcePath": "/home/pablo/Desktop/TFM/proyectos/entrada/contracts/Entradas.sol",
  "compiler": {
    "name": "solc",
    "version": "0.8.17+commit.8df45f5f.Emscripten.clang"
  },
  "schemaVersion": "3.4.11",
  "updatedAt": "2023-04-22T11:39:46.395Z",
  "networkType": "ethereum",
  "devdoc": {
    "kind": "dev",
    "methods": {},
    "version": 1
  },
  "userdoc": {
    "kind": "user",
    "methods": {
      "creador()": {
        "notice": "address del creador que ha desplegado el contrato. El contrato lo despliega el creador."
      },
      "evento()": {
        "notice": "Nombre del evento"
      }
    },
    "notice": "El contrato Entardas que representa un conjunto de entradas de un evento.",
    "version": 1
  }
}